:03000000020C5A95
:0C0C5A00787FE4F6D8FD758160020CA1E3
:100DC80001083202460000014500203C09000000ED
:100DD800000000000000000000000000000000000B
:100DE80000000000000000000000000000000000FB
:100DF80000000000000000000000000000000000EB
:090E0800000000000000000000E1
:03002B00020BC8FD
:100BC800C0E0C0F0C083C082C0D075D000C000C0F3
:0D0BD80001C002C003C004C005C006C00774
:100BE500755600C2CF0547E54770020546755600A4
:100BF500E556C395455043E55675F006A4240CF813
:100C0500E6FC08E6FDAE46AF47120908ED4C702636
:100C1500E55675F006A42409F8860308E6FA08E601
:100C25004A4B6012E55675F006A42409F808E6FA61
:0A0C350008E6F9120A2B055680B6F6
:100C3F00D007D006D005D004D003D002D001D00009
:0B0C4F00D0D0D082D083D0F0D0E032B3
:040F00004387012200
:0A0D6D008B518A528953AF05AE0482
:100D7700E4F5540545D3E545940A7480948040050D
:100D87007554408039E54514FDE54575F006A42402
:100D970008F8A605AD087C00120908E54575F006B8
:100DA700A42406F8A60608A607AA52A953E545757E
:100DB700F006A42403F8A65108A60208A601AF541A
:010DC7002209
:060CE6008B578A58895962
:100CEC00755A01E4F55BF55BE55BC39545506FE523
:100CFC005B75F006A42409F8860308E6FA08E6F901
:100D0C00E5578558838559826B7008E965827003B5
:100D1C00EA65837045F55AE54514FFE55BC39F50C2
:100D2C0024E55B75F006A4FF240FF9E4FAFBC0017F
:100D3C0074092FF9E4A801FCFDD001FE7F0612080E
:100D4C00D0055B80D2E54575F006A42403F8760047
:100D5C0008760008760015458004055B808AAF5A3A
:010D6C002264
:050EFB00120F0080FB56
:100EB8008F08EFD394417480948040028003120E0F
:030EC800217F0087
:010ECB002204
:060EA2008B5C8A5D895E95
:0F0EA800E4FFE94A4B6005E5080208F64307043A
:010EB7002218
:100E2100E4F551C2CA75C804AF08FE7C2E7DE012FC
:100E31000A31E47B0CFAF9F81209998F558E548D19
:100E4100538C52C3E49FFFE49EF5CDF5CB8FCC8F3D
:090E5100CAD2ADD2CAD2AFAF5132
:010E5A002275
:040E1100025F00007C
:100E5B00E4F551E54814600F14601114601324037A
:100E6B007017120EF0800D120ECC8008120ED88067
:0E0E7B0003120EE4EF42518003435140AF5189
:010E89002246
:100A5E00E4F551E548146066147003020B1F147020
:100A6E0003020B6F24036003020BC2E54A24FFFF4F
:100A7E00E54934FFFEC3E5609FE55F9E5017E560D4
:100A8E00455F7006120EF0EF42510560E56070553D
:100A9E00055F020BC5E54A24FFFFE54934FFFEC39F
:100AAE00E5609FE55F9E400BE4F55FF560120ECCAE
:100ABE00020BB30560E5607055055F020BC2E54C95
:100ACE0024FFFFE54B34FFFEC3E5609FE55F9E50BC
:100ADE0017E560455F7006120ECCEF42510560E5DA
:100AEE00607002055F020BC5E54C24FFFFE54B3439
:100AFE00FFFEC3E5609FE55F9E400BE4F55FF5608A
:100B0E00120ED8020BB30560E5607002055F020B92
:100B1E00C2E54E24FFFFE54D34FFFEC3E5609FE5C1
:100B2E005F9E5016E560455F7006120ED8EF42517B
:100B3E000560E5607002055F807DE54E24FFFFE5F0
:100B4E004D34FFFEC3E5609FE55F9E400AE4F55F0E
:100B5E00F560120EE4804E0560E5607002055F8060
:100B6E0053E55024FFFFE54F34FFFEC3E5609FE5DC
:100B7E005F9E5016E560455F7006120EE4EF42511F
:100B8E000560E5607031055F802DE55024FFFFE5BF
:100B9E004F34FFFEC3E5609FE55F9E400DE4F55FB9
:100BAE00F560120EF0EF4251800D0560E5607002A7
:090BBE00055F8000435140AF5176
:010BC700220B
:0A0EF000E4FFF548D290D291D292AF
:010EFA0022D5
:0B0ECC00E4FF754801C290D291D29261
:010ED70022F8
:0B0ED800E4FF754802D290C291D29254
:010EE30022EC
:0B0EE400E4FF754803D290D291C29247
:010EEF0022E0
:0B0E1500094800000300030003000375
:100E8A00120E21120E5B7BFF7A0A795E7DE87C03E3
:080E9A00120D6D120EFB80FE2B
:100C6600020E8AE493A3F8E493A34003F68001F20C
:100C760008DFF48029E493A3F85407240CC8C3338F
:100C8600C4540F4420C8834004F456800146F6DF5E
:100C9600E4800B0102040810204080900DC8E47E19
:100CA600019360BCA3FF543F30E509541FFEE49353
:100CB600A360010ECF54C025E060A840B8E493A31A
:100CC600FAE493A3F8E493A3C8C582C8CAC583CA45
:100CD600F0A3C8C582C8CAC583CADFE9DEE780BEFD
:010E200000D1
:10080000E709F608DFFA8046E709F208DFFA803EDA
:1008100088828C83E709F0A3DFFA8032E309F608C7
:10082000DFFA8078E309F208DFFA807088828C832F
:10083000E309F0A3DFFA806489828A83E0A3F608E3
:10084000DFFA805889828A83E0A3F208DFFA804CBD
:1008500080D280FA80C680D4806980F28033801094
:1008600080A680EA809A80A880DA80E280CA8033FD
:1008700089828A83ECFAE493A3C8C582C8CCC58375
:10088000CCF0A3C8C582C8CCC583CCDFE9DEE78045
:100890000D89828A83E493A3F608DFF9ECFAA9F0C4
:1008A000EDFB2289828A83ECFAE0A3C8C582C8CC1A
:1008B000C583CCF0A3C8C582C8CCC583CCDFEADE33
:1008C000E880DB89828A83E493A3F208DFF980CC95
:1008D00088F0EF60010E4E60C388F0ED2402B4048E
:1008E0000050B9F582EB2402B4040050AF23234535
:0608F00082239008507302
:1008F600BB010689828A83F0225002F722BBFE01E1
:02090600F322DA
:10090800BC000BBE0029EF8DF084FFADF022E4CCD3
:10091800F875F008EF2FFFEE33FEEC33FCEE9DEC9C
:10092800984005FCEE9DFE0FD5F0E9E4CEFD22EDE2
:10093800F8F5F0EE8420D21CFEADF075F008EF2F2C
:10094800FFED33FD4007985006D5F0F222C398FD1D
:050958000FD5F0EA22BA
:10095D0075F008758200EF2FFFEE33FECD33CDCC51
:10096D0033CCC58233C5829BED9AEC99E5829840D4
:10097D000CF582EE9BFEED9AFDEC99FC0FD5F0D6B1
:10098D00E4CEFBE4CDFAE4CCF9A88222B800C1B9DB
:10099D000059BA002DEC8BF084CFCECDFCE5F0CB19
:1009AD00F97818EF2FFFEE33FEED33FDEC33FCEB52
:1009BD0033FB10D703994004EB99FB0FD8E5E4F90D
:1009CD00FA227818EF2FFFEE33FEED33FDEC33FCFA
:1009DD00C933C910D7059BE99A4007EC9BFCE99AEE
:1009ED00F90FD8E0E4C9FAE4CCFB2275F010EF2F33
:1009FD00FFEE33FEED33FDCC33CCC833C810D70733
:100A0D009BEC9AE899400AED9BFDEC9AFCE899F86D
:0E0A1D000FD5F0DAE4CDFBE4CCFAE4C8F92200
:060A2B008A838982E47356
:100A3100EC8EF0A4CCC5F0CCCDF8EFA4CEC5F02D52
:100A4100FDE43CFCE8A42EC8C5F03DFDE43CFCEF10
:0D0A5100A4FFE5F028FEE43DFDE43CFC229E
:00000001FF
