:03000000020B09E7
:0C0B0900787FE4F6D8FD75816D020B507A
:100CE500012132025F0000015E00203C220000006D
:100CF50000000000000000000000000000000000EF
:100D050000000000000000000000000000000000DE
:100D150000000000000000000000000000000000CE
:090D2500000000000000000000C5
:03002B00020A774F
:100A7700C0E0C0F0C083C082C0D075D000C000C045
:0D0A870001C002C003C004C005C006C007C6
:100A9400751600C2CF0560E5607002055F7516002B
:100AA400E516C3955E5043E51675F006A42425F8B3
:100AB400E6FC08E6FDAE5FAF60120921ED4C70263E
:100AC400E51675F006A42422F8860308E6FA08E67B
:100AD4004A4B6012E51675F006A42422F808E6FADB
:0A0AE40008E6F9120A44051680B670
:100AEE00D007D006D005D004D003D002D001D0005C
:0B0AFE00D0D0D082D083D0F0D0E03206
:0411260043870122D8
:0A0C8A008B088A09890AAF05AE0441
:100C9400E4F50B055ED3E55E940A74809480400508
:100CA400750B408039E55E14FDE55E75F006A424FD
:100CB40021F8A605AD217C00120921E55E75F00638
:100CC400A4241FF8A60608A607AA09A90AE55E75C2
:100CD400F006A4241CF8A60808A60208A601AF0B77
:010CE40022ED
:060B95008B178A18891974
:100B9B00751A01E4F51BF51BE51BC3955E506FE55C
:100BAB001B75F006A42422F8860308E6FA08E6F97A
:100BBB00E5178518838519826B7008E965827003C8
:100BCB00EA65837045F51AE55E14FFE51BC39F507C
:100BDB0024E51B75F006A4FF2428F9E4FAFBC001F9
:100BEB0074222FF9E4A801FCFDD001FE7F06120848
:100BFB00D0051B80D2E55E75F006A4241CF87600A8
:100C0B00087600087600155E8004051B808AAF1AF3
:010C1B0022B6
:0511210012112680FB05
:10110D008F21EFD394417480948040028003120E9E
:03111D00D37F007D
:0111200022AC
:0610F7008B1C8A1D891EFE
:0F10FD00E4FFE94A4B6005E52102090F430704B0
:01110C0022C0
:100ED300E4F508C2CA75C804AF21FE7C2E7DE0127A
:100EE3000A4AE47B0CFAF9F81209B28F0C8E0B8DC7
:100EF3000A8C09C3E49FFFE49EF5CDF5CB8FCC8F1D
:090F0300CAD2ADD2CAD2AFAF08C8
:010F0C0022C2
:1010DF00120ED31210877BFF7A0E795C7DE87C03AA
:0810EF00120C8A12112180FE8F
:040D2E00026C000053
:10108700E4F508C290C291C292C293C294120DD6DF
:0D109700EF4208E5086004FF12112AAF08BF
:0110A4002229
:100E5C00E4F508E56114601514601714601914604A
:100E6C001B14601D2405701E120DD6801C120D4023
:100E7C008017120D918012120E98800D120E19808F
:0B0E8C00081210A58003430820AF08E7
:010E97002238
:020C1C008F1334
:100C1E00E4F514E51330E0047F0180027F00120F2B
:100C2E00C0EF4214E51330E1047F0180027F001211
:100C3E000FE9EF4214E51330E2047F0180027F00DA
:100C4E00121012EF4214E51330E3047F0180027F8D
:100C5E0000120F6EEF4214E51330E4047F018002A0
:100C6E007F00120F45EF4214E51330E5047F01803B
:0B0C7E00027F00120F97EF4214AF142A
:010C89002248
:1010A500E4F512756105E56D456C700FFF120C1CBA
:0D10B500EF4212056DE56D7002056CAF1283
:0110C200220B
:100DD600E4F509F50AF561E56D456C7007FF120C3F
:100DE6001CEF4209056DE56D7002056C7B007A000B
:100DF600790A121061EF4209E50A6401700AF56C7E
:100E0600F56D120D40EF4209E5096004FF12112A43
:020E1600AF0922
:010E180022B7
:100D4000E4F50BF50C756101E56D456C70087F0CE1
:100D5000120C1CEF420B056DE56D7002056CC3941F
:100D6000E8E56C94034003430B027B007A00790CA6
:100D7000120F0DEF420BE50C6401700AF56CF56D76
:100D8000120D91EF420BE50B6004FF12112AAF0B1D
:010D90002240
:100D9100E4F50DF50E756102E56D456C70087F0295
:100DA100120C1CEF420D056DE56D7002056C7B00A8
:100DB1007A00790E1210C3EF420DE50E6401700A3C
:100DC100F56CF56D120E98EF420DE50D6004FF1202
:040DD100112AAF0D27
:010DD50022FB
:100E9800E4F50F756103E56D456C70087F20120C51
:100EA8001CEF420F056DE56D7002056CC39405E5F6
:100EB8006C9400400BE4F56CF56D120E19EF420FBF
:0A0EC800E50F6004FF12112AAF0FBE
:010ED20022FD
:100E1900E4F510F511756104E56D456C70087F0105
:100E2900120C1CEF4210056DE56D7002056C7B001C
:100E39007A007911120F0DEF4210E511700AF56C65
:100E4900F56D1210A5EF4210E5106004FF12112A8A
:020E5900AF10D8
:010E5B002274
:10103B00E4F51FA2903312090FE563700E1208F648
:10104B00640170028002740112090FE51F6004FF36
:05105B0012112AAF1F75
:01106000226D
:10106100E4F50BA2913312090FE564700E1208F634
:10107100640170028002740112090FE50B6004FF24
:0510810012112AAF0B63
:011086002247
:100F0D00E4FFC200C201A2939200A2929201E56594
:100F1D007004B200B2013000073001047401801179
:100F2D00200006200103E48008200008300105742C
:070F3D000202090F43074007
:010F4400228A
:1010C300E4F50FA2943364017003048001E4120970
:0B10D3000FE50F6004FF12112AAF0FA1
:0110DE0022EF
:100F4500E4F515EF14600C047011E56624FFB39207
:100F5500A0800BE56624FF92A08003431520E515CC
:080F65006004FF12112AAF1510
:010F6D002261
:100F6E00E4F515EF14600C047011E56724FFB392DD
:100F7E00A1800BE56724FF92A18003431520E515A0
:080F8E006004FF12112AAF15E7
:010F96002238
:100F9700E4F515EF14600C047011E56824FFB392B3
:100FA700A2800BE56824FF92A28003431520E51574
:080FB7006004FF12112AAF15BE
:010FBF00220F
:100FC000E4F515EF14600C047011E56924FFB39289
:100FD000A3800BE56924FF92A38003431520E51548
:080FE0006004FF12112AAF1595
:010FE80022E6
:100FE900E4F515EF14600C047011E56A24FFB3925F
:100FF900A4800BE56A24FF92A48003431520E5151C
:081009006004FF12112AAF156B
:0110110022BC
:10101200E4F515EF14600C047011E56B24FFB39234
:10102200A5800BE56B24FF92A58003431520E515EF
:081032006004FF12112AAF1542
:01103A002293
:01112A0022A2
:0D0D32000B61001901010101010101010126
:100B15000210DFE493A3F8E493A34003F68001F207
:100B250008DFF48029E493A3F85407240CC8C333E1
:100B3500C4540F4420C8834004F456800146F6DFB0
:100B4500E4800B0102040810204080900CE5E47E4F
:100B5500019360BCA3FF543F30E509541FFEE493A5
:100B6500A360010ECF54C025E060A840B8E493A36C
:100B7500FAE493A3F8E493A3C8C582C8CAC583CA97
:100B8500F0A3C8C582C8CAC583CADFE9DEE780BE4F
:010D3F0000B3
:10080000E709F608DFFA8046E709F208DFFA803EDA
:1008100088828C83E709F0A3DFFA8032E309F608C7
:10082000DFFA8078E309F208DFFA807088828C832F
:10083000E309F0A3DFFA806489828A83E0A3F608E3
:10084000DFFA805889828A83E0A3F208DFFA804CBD
:1008500080D280FA80C680D4806980F28033801094
:1008600080A680EA809A80A880DA80E280CA8033FD
:1008700089828A83ECFAE493A3C8C582C8CCC58375
:10088000CCF0A3C8C582C8CCC583CCDFE9DEE78045
:100890000D89828A83E493A3F608DFF9ECFAA9F0C4
:1008A000EDFB2289828A83ECFAE0A3C8C582C8CC1A
:1008B000C583CCF0A3C8C582C8CCC583CCDFEADE33
:1008C000E880DB89828A83E493A3F208DFF980CC95
:1008D00088F0EF60010E4E60C388F0ED2402B4048E
:1008E0000050B9F582EB2402B4040050AF23234535
:0608F00082239008507302
:1008F600BB010689828A83E0225002E722BBFE0200
:09090600E32289828A83E4932232
:10090F00BB010689828A83F0225002F722BBFE01C7
:02091F00F322C1
:10092100BC000BBE0029EF8DF084FFADF022E4CCBA
:10093100F875F008EF2FFFEE33FEEC33FCEE9DEC83
:10094100984005FCEE9DFE0FD5F0E9E4CEFD22EDC9
:10095100F8F5F0EE8420D21CFEADF075F008EF2F13
:10096100FFED33FD4007985006D5F0F222C398FD04
:050971000FD5F0EA22A1
:1009760075F008758200EF2FFFEE33FECD33CDCC38
:1009860033CCC58233C5829BED9AEC99E5829840BB
:100996000CF582EE9BFEED9AFDEC99FC0FD5F0D698
:1009A600E4CEFBE4CDFAE4CCF9A88222B800C1B9C2
:1009B6000059BA002DEC8BF084CFCECDFCE5F0CB00
:1009C600F97818EF2FFFEE33FEED33FDEC33FCEB39
:1009D60033FB10D703994004EB99FB0FD8E5E4F9F4
:1009E600FA227818EF2FFFEE33FEED33FDEC33FCE1
:1009F600C933C910D7059BE99A4007EC9BFCE99AD5
:100A0600F90FD8E0E4C9FAE4CCFB2275F010EF2F19
:100A1600FFEE33FEED33FDCC33CCC833C810D70719
:100A26009BEC9AE899400AED9BFDEC9AFCE899F854
:0E0A36000FD5F0DAE4CDFBE4CCFAE4C8F922E7
:060A44008A838982E4733D
:100A4A00EC8EF0A4CCC5F0CCCDF8EFA4CEC5F02D39
:100A5A00FDE43CFCE8A42EC8C5F03DFDE43CFCEFF7
:0D0A6A00A4FFE5F028FEE43DFDE43CFC2285
:00000001FF
