:03000000020AF001
:0C0AF000787FE4F6D8FD75815F020B37BB
:100CC70001083202460000014500203C09000000EF
:100CD700000000000000000000000000000000000D
:100CE70000000000000000000000000000000000FD
:100CF70000000000000000000000000000000000ED
:090D0700000000000000000000E3
:03002B00020A5E68
:100A5E00C0E0C0F0C083C082C0D075D000C000C05E
:0D0A6E0001C002C003C004C005C006C007DF
:100A7B00754F00C2CF0547E54770020546754F001D
:100A8B00E54FC395455043E54F75F006A4240CF88C
:100A9B00E6FC08E6FDAE46AF47120908ED4C7026A2
:100AAB00E54F75F006A42409F8860308E6FA08E674
:100ABB004A4B6012E54F75F006A42409F808E6FAD4
:0A0ACB0008E6F9120A2B054F80B669
:100AD500D007D006D005D004D003D002D001D00075
:0B0AE500D0D0D082D083D0F0D0E0321F
:040E480043870122B9
:0A0C6C008B488A49894AAF05AE049F
:100C7600E4F54B0545D3E545940A74809480400518
:100C8600754B408039E54514FDE54575F006A4240D
:100C960008F8A605AD087C00120908E54575F006BA
:100CA600A42406F8A60608A607AA49A94AE5457592
:100CB600F006A42403F8A64808A60208A601AF4B2E
:010CC600220B
:060B7C008B508A518952E2
:100B8200755301E4F554F554E554C39545506FE5AA
:100B92005475F006A42409F8860308E6FA08E6F973
:100BA200E5508551838552826B7008E96582700336
:100BB200EA65837045F553E54514FFE554C39F503C
:100BC20024E55475F006A4FF240FF9E4FAFBC001F2
:100BD20074092FF9E4A801FCFDD001FE7F0612087A
:100BE200D0055480D2E54575F006A42403F87600BA
:100BF200087600087600154580040554808AAF53B4
:010C020022CF
:050E4300120E4880FBC7
:100DB5008F08EFD394417480948040028003120D14
:030DC5001E7F008E
:010DC8002208
:060D9F008B598A5A895BA2
:0F0DA500E4FFE94A4B6005E5080208F64307043E
:010DB400221C
:100D1E00E4F548C2CA75C804AF08FE7C2E7DE01209
:100D2E000A31E47B0CFAF9F81209998F4C8E4B8D2F
:100D3E004A8C49C3E49FFFE49EF5CDF5CB8FCC8F53
:090D4E00CAD2ADD2CAD2AFAF483F
:010D57002279
:100D8700120D1E120E167BFF7A0D79587DE87C0333
:080D9700120C6C120E4380FEE9
:070D1000015C00025D000020
:0E0E1600E4FFF55DF55EF55CD290C291C292EC
:010E240022AB
:080E3300E4FFC290C291C292DB
:010E3B002294
:100D5800E4F548E55C14600F146011146013240373
:100D68007017120DDD800D120DC98008120DF0806C
:0E0D780003120E03EF42488003434820AF48A9
:010D8600224A
:0D0E2500E4F55F8F5C120D58EF425FAF5F88
:010E3200229D
:070E3C00E4FFE55C0208F68B
:100DDD00E4F54985554DFBFD7F01120C03EF4249AA
:020DED00AF490C
:010DEF0022E1
:100DC900E4F54985564DFB7D017F01120C03EF4285
:030DD90049AF49D6
:010DDC0022F4
:100DF000E4F54985574D7B01FDFF120C03EF424995
:020E0000AF49F8
:010E020022CD
:100E0300E4F54985584DFB7D01FF120C03EF424980
:020E1300AF49E5
:010E150022BA
:040C03008F4AA90566
:100C0700E4FFF54EE54DFD055EE55E7002055DC34B
:100C17009DE55D9400403DE4F55DF55EE55C14609F
:100C27001114601814601F24037025755C01D2909D
:100C3700800F755C02C290C291D29222755C03C28A
:100C470090D291C29222E4F55CD290C291C29222D4
:100C570043072022E54A24FF9290E924FF9291EB73
:040C670024FF929242
:010C6B002266
:060D170004550402040271
:100AFC00020D87E493A3F8E493A34003F68001F27C
:100B0C0008DFF48029E493A3F85407240CC8C333FA
:100B1C00C4540F4420C8834004F456800146F6DFC9
:100B2C00E4800B0102040810204080900CC7E47E86
:100B3C00019360BCA3FF543F30E509541FFEE493BE
:100B4C00A360010ECF54C025E060A840B8E493A385
:100B5C00FAE493A3F8E493A3C8C582C8CAC583CAB0
:100B6C00F0A3C8C582C8CAC583CADFE9DEE780BE68
:010D1D0000D5
:10080000E709F608DFFA8046E709F208DFFA803EDA
:1008100088828C83E709F0A3DFFA8032E309F608C7
:10082000DFFA8078E309F208DFFA807088828C832F
:10083000E309F0A3DFFA806489828A83E0A3F608E3
:10084000DFFA805889828A83E0A3F208DFFA804CBD
:1008500080D280FA80C680D4806980F28033801094
:1008600080A680EA809A80A880DA80E280CA8033FD
:1008700089828A83ECFAE493A3C8C582C8CCC58375
:10088000CCF0A3C8C582C8CCC583CCDFE9DEE78045
:100890000D89828A83E493A3F608DFF9ECFAA9F0C4
:1008A000EDFB2289828A83ECFAE0A3C8C582C8CC1A
:1008B000C583CCF0A3C8C582C8CCC583CCDFEADE33
:1008C000E880DB89828A83E493A3F208DFF980CC95
:1008D00088F0EF60010E4E60C388F0ED2402B4048E
:1008E0000050B9F582EB2402B4040050AF23234535
:0608F00082239008507302
:1008F600BB010689828A83F0225002F722BBFE01E1
:02090600F322DA
:10090800BC000BBE0029EF8DF084FFADF022E4CCD3
:10091800F875F008EF2FFFEE33FEEC33FCEE9DEC9C
:10092800984005FCEE9DFE0FD5F0E9E4CEFD22EDE2
:10093800F8F5F0EE8420D21CFEADF075F008EF2F2C
:10094800FFED33FD4007985006D5F0F222C398FD1D
:050958000FD5F0EA22BA
:10095D0075F008758200EF2FFFEE33FECD33CDCC51
:10096D0033CCC58233C5829BED9AEC99E5829840D4
:10097D000CF582EE9BFEED9AFDEC99FC0FD5F0D6B1
:10098D00E4CEFBE4CDFAE4CCF9A88222B800C1B9DB
:10099D000059BA002DEC8BF084CFCECDFCE5F0CB19
:1009AD00F97818EF2FFFEE33FEED33FDEC33FCEB52
:1009BD0033FB10D703994004EB99FB0FD8E5E4F90D
:1009CD00FA227818EF2FFFEE33FEED33FDEC33FCFA
:1009DD00C933C910D7059BE99A4007EC9BFCE99AEE
:1009ED00F90FD8E0E4C9FAE4CCFB2275F010EF2F33
:1009FD00FFEE33FEED33FDCC33CCC833C810D70733
:100A0D009BEC9AE899400AED9BFDEC9AFCE899F86D
:0E0A1D000FD5F0DAE4CDFBE4CCFAE4C8F92200
:060A2B008A838982E47356
:100A3100EC8EF0A4CCC5F0CCCDF8EFA4CEC5F02D52
:100A4100FDE43CFCE8A42EC8C5F03DFDE43CFCEF10
:0D0A5100A4FFE5F028FEE43DFDE43CFC229E
:00000001FF
